:100000000C9466010C948E010C948E010C948E015C
:100010000C948E010C948E010C948E010C948E0124
:100020000C948E010C948E010C948E010C948E0114
:100030000C948E010C948E010C94FC060C948E0191
:100040000C948E010C948E010C948E010C948E01F4
:100050000C948E010C948E010C948E010C948E01E4
:100060000C948E010C948E011D0C1D0C1D0C1D0C8E
:10007000250C400C660C920CB00CD60CFC0C220D1E
:10008000510D680D760F7E0F860F8E0F960FA70FFE
:10009000BC0FD10FE20FFD0F12102D105C106D1070
:1000A0000000000000015F000000000107000700E1
:1000B0000003147F147F1405242A7F2A12052313BA
:1000C000086462053649552250050700000000010A
:1000D0001C224100000341221C00000314083E08BA
:1000E000140508083E080805A06000000002080882
:1000F000080808054000000000012010080402055F
:100100003E5149453E05427F40000003426151494E
:1001100046052241494936051814127F1005274526
:10012000454539053C4A4949300501710905030532
:10013000364949493605064949493E05240000002B
:100140000001563600000002081422410004121279
:100150001212120541221408000406015109060575
:100160003E415D551E057C0A090A7C057F494949C7
:1001700036053E41414122057F4141221C057F4910
:10018000494941057F09090901053E4141513205AF
:100190007F0808087F05417F4100000320413F00A0
:1001A00000037F08142241057F40404000047F0285
:1001B00004027F057F0204087F053E4141413E0560
:1001C0007F09090906053E4151215E057F0919296C
:1001D000460546494949310501017F0101053F4076
:1001E00040403F051F2040201F053F4030403F0555
:1001F0006314081463050304780403056151494539
:1002000043057F4100000002034618600004417F5F
:100210000000000206010600000340404040400587
:100220000102040000032054547800047F48483041
:1002300000043844444400043048487F00043854E3
:1002400054580004087E090900040C5252523E051D
:100250007F0804047805447D4000000344443D00C9
:1002600000037F1028440004417F400000037E0209
:100270007C027C057C08047800043844444438053A
:100280007E12120C00040C12120A7E057C04040873
:100290000004485454240004043F444400043C40F7
:1002A000407C00041C2040201C053C4078403C055C
:1002B0004428102844050C50503C000462524A4621
:1002C0000005070507000003620A9A1011241FBEEB
:1002D000CFEFD8E0DEBFCDBF11E0A0E0B1E0ECE3AE
:1002E000FAE202C005900D92AC3CB107D9F722E0CA
:1002F000ACECB1E001C01D92A434B207E1F711E00B
:10030000C6E6D1E004C02197FE010E941512C43652
:10031000D107C9F70E9421070C941C150C9400000A
:10032000AF92CF92DF92EF920F931F9388E0089FD6
:10033000800111248E2D8170082B80E2289F90016E
:100340001124202B8E2D8670282B80E4489FA0013D
:100350001124242B80E8689FB0011124622B609344
:100360007A0080E4C89E600111248A2D8770C82A13
:10037000C0927B001F910F91EF90DF90CF90AF90D4
:10038000089520917A00E42FE69580E8E89FF00137
:100390001124842F817090E036E0880F991F3A95E0
:1003A000E1F78E2B962F9170892B6E70862B8093A0
:1003B0007C008AE68A95F1F700C0822F80648093E2
:1003C0007A0080917A0086FDFCCF809178002091A0
:1003D000790090E0922B0895AF92BF92CF92DF9276
:1003E000EF92FF920F931F93CF93DF93CDB7DEB7BA
:1003F0008C01CA01CDB6DEB6422F50E05A012FEF74
:10040000A21AB20AADB7BEB7AA19BB090FB6F894C3
:10041000BEBF0FBEADBFEDB7FEB731967F011196DF
:100420006C93BC01CF0101960E941B12F8018081E0
:100430009181DC01ED91FC910688F789E02D04E6BD
:1004400010E09501A70160ED09950FB6F894DEBEA6
:100450000FBECDBEDF91CF911F910F91FF90EF9016
:10046000DF90CF90BF90AF900895CF92DF92EF9240
:10047000FF920F931F93CF93DF931F92CDB7DEB7F9
:100480006983DC018D919C91E22EF12CDC01ED91D0
:10049000FC910488F589E02D24E6C22ED12C8A0136
:1004A00021E0AE014F5F5F4F60ED09950F90DF9146
:1004B000CF911F910F91FF90EF90DF90CF90089513
:1004C000CF93DF9300D01F92CDB7DEB7FC01862F0C
:1004D0003AE0632F0E94D311592F60E1869FC0013B
:1004E0001124852B8983842F632F0E94D311492FD8
:1004F00050E1859FC0011124842B8A83822F0E94A2
:10050000D311292F60E1869FC0011124822B8B8398
:1005100023E0AE014F5F5F4F60E0CF010E94EC012E
:100520000F900F900F90DF91CF9108950F93CF937D
:10053000DF9300D000D0CDB7DEB7FC01842F677009
:1005400069835AE0652F0E94D311392F40E1849FBF
:10055000C0011124832B8A83822F0E94D311292F5B
:1005600030E1839FC0011124282B802F64E60E9474
:10057000D31140E8849FC0011124822B8B83802FEC
:10058000652F0E94D311292F30E1839FC0011124D0
:10059000822B8C8324E0AE014F5F5F4F63E0CF017D
:1005A0000E94EC010F900F900F900F90DF91CF9170
:1005B0000F910895CF92DF92EF92FF920F931F93C6
:1005C000CF93DF9300D01F92CDB7DEB76B017A01D6
:1005D000890123E0AE014F5F5F4F60E00E9435026A
:1005E0009981292F2695269526952E71322F330F26
:1005F000330F230F9F70920FF60190839A81292F5A
:100600002695269526952E71322F330F330F230F03
:100610009F70920FF70190839B81292F2695269535
:1006200026952E71322F330F330F230F9F70920FA9
:10063000F80190830F900F900F90DF91CF911F9151
:100640000F91FF90EF90DF90CF900895AF92BF92FF
:10065000CF92DF92EF92FF920F931F93CF93DF938E
:1006600000D000D0CDB7DEB75B016A01790124E08C
:10067000AE014F5F5F4F63E00E9435029981F50143
:1006800090839A81292F2695269526952E71322FB3
:10069000330F330F230F9F70920FF60190839B81CE
:1006A00094FB222720F9220F322F330F330F230F11
:1006B0009F70920FF70190839C81292F2695269594
:1006C00026952E71322F330F330F230F9F70920F09
:1006D000F80190830F900F900F900F90DF91CF91C2
:1006E0001F910F91FF90EF90DF90CF90BF90AF9050
:1006F0000895FC018281846A8093BC000895FC0106
:10070000828184698093BC0008956093BB00FC01E2
:10071000828184688093BC0008956170FC016383CA
:100720000895FC018091BB00238190E4299F9001F2
:10073000112492819468292B2093BC000895209164
:10074000B9009091B900287F31E0283009F030E0FD
:10075000987F81E0903109F080E0832B08958091AB
:10076000BC00807808958091B9008071089530911F
:10077000B9002091B9009091B900387F41E038313B
:1007800009F040E0287F81E0283209F080E0842BE6
:10079000987F21E0903409F020E0822B08950F9398
:1007A0001F93CF93DF938C01EB01688179818A815C
:1007B0009B81F80164837583868397832C813D81B7
:1007C0004E815F810E94F311DA01C9014097A109AE
:1007D000B109B695A795979587958093B800109223
:1007E000B9008885982F9E7F89858170892B809399
:1007F000BA008A85F801828384608093BC00DF910F
:10080000CF911F910F9108956F927F928F929F9237
:10081000AF92BF92CF92DF92EF92FF920F931F930E
:10082000CF93DF93EC01962E3A01822E2091B800EF
:100830002C9DC0012D9D900D11248E9D60018F9DDA
:10084000D00C9E9DD00C1124E881F9810280F381A7
:10085000E02DCE010995E881F9810484F585E02D2C
:10086000CE010995811107C0C114D10421F0B1E076
:10087000CB1AD108F0CFE881F9810680F781E02D0D
:10088000692DCE010995E881F9810684F785E02D6F
:10089000CE010995811104C0C114D10409F05CC0D6
:1008A000E881F9810088F189E02DCE01099588233E
:1008B000B9F15301680C711C88248394E881F98193
:1008C0006A147B04C1F0D5016D915D010680F7814A
:1008D000E02DCE010995E881F9810684F785E02DA8
:1008E000CE01099581113CC0C114D104C9F1F1E0D8
:1008F000CF1AD108F0CF0280F381E02DCE01099507
:10090000E881F9810484F585E02DCE0109958111F6
:1009100030C0C114D10469F181E0C81AD108F0CF08
:10092000E881F9810480F581E02DCE010995812CC3
:1009300081E0CD2809F480E08821DF91CF911F91DB
:100940000F91FF90EF90DF90CF90BF90AF909F906E
:100950008F907F906F900895E1E0CE1AD10893CFE9
:10096000E881F9810088F189E02DCE01099588227E
:10097000A5CF692D6160E881F9810680F781E02DBE
:10098000CE010995E881F9810684F785E02DCE0135
:100990000995811107C0C114D10421F0A1E0CA1A40
:1009A000D108F0CFE881F9810088F189E02DCE01EE
:1009B00009958822E881F981B1E0EB16F104E9F4A8
:1009C0000084F185E02D60E0CE010995E881F98190
:1009D0000284F385E02DCE010995E881F981068432
:1009E000F785E02DCE010995811124C0C114D104F1
:1009F00009F1E1E0CE1AD108F0CF0084F185E02DB5
:100A000061E0CE010995E881F9810284F385E02D4A
:100A1000CE010995E881F9810684F785E02DCE01A4
:100A20000995811118C0C114D104A9F0B1E0CB1A05
:100A3000D108F0CFE881F9810480F581E02DCE0165
:100A40000995E881F9810284F385E02DCE010995AD
:100A5000D8018C936DCFE1E0EE1AF1083801A12C9A
:100A6000B12CBFEFAB1ABB0A61E0AE14BF0408F0B3
:100A700060E0E881F9810084F185E02DCE010995DF
:100A8000E881F9810284F385E02DCE010995F30117
:100A900081933F01E881F9810684F785E02DCE013D
:100AA00009958823A9F0AE14BF04D8F2E881F98132
:100AB0000480F581E02DCE010995E00EF11EE8815C
:100AC000F9810284F385E02DCE010995D701C1CFCC
:100AD000C114D10441F3F1E0CF1AD108DBCFAF92BA
:100AE000BF92CF92DF92EF92FF920F931F93CF931B
:100AF000DF93EC01D62EB42EA52E79012091B800FB
:100B0000209FC001219F900D1124E89E8001E99E45
:100B1000100DF89E100D1124E881F9810280F381F7
:100B2000E02DCE010995E881F9810484F585E02D59
:100B3000CE010995811106C00115110519F001506A
:100B40001109F1CFE881F9810680F781E02D6D2D43
:100B5000CE010995E881F9810684F785E02DCE0163
:100B60000995811104C00115110509F044C0E881FF
:100B7000F9810088F189E02DCE010995882319F1CA
:100B8000CB2CDA2C5601AE0CBF1CFF24F394AC1412
:100B9000BD04D1F0F60161916F01E881F981068011
:100BA000F781E02DCE010995E881F9810684F7856A
:100BB000E02DCE010995811121C001151105F1F03B
:100BC00001501109F1CFF12CE881F9810480F58100
:100BD000E02DCE01099581E0012B09F480E08F2101
:100BE000DF91CF911F910F91FF90EF90DF90CF9009
:100BF000BF90AF90089501501109ACCFE881F98101
:100C00000088F189E02DCE010995F822C0CFAF927E
:100C1000CF92EF920F93A12CC12C86E0E82E00E03A
:100C200020E041E061E084ED91E00E9490010F91AD
:100C3000EF90CF90AF9008950F931F93CF93DF93D2
:100C4000EC0188818E7F88834D99B5C083FFB3C046
:100C500088ED91E00E94570A0091CC011091CD01DE
:100C60002091CE013091CF01DC01CB01801B910B93
:100C7000A20BB30BC297A105B10508F49CC08881F3
:100C80008160877F888388818D7F88834B9998C016
:100C900084FF96C088ED91E00E94570A0091CC0134
:100CA0001091CD012091CE013091CF01DC01CB011B
:100CB000801B910BA20BB30BC297A105B10508F4E1
:100CC0007FC0888182608F7E888388818B7F8883C4
:100CD0004A997BC085FF79C088ED91E00E94570A50
:100CE0000091CC011091CD012091CE013091CF0126
:100CF000DC01CB01801B910BA20BB30BC297A105AA
:100D0000B10508F462C0888184608F7D88834D9B23
:100D100004C04B9B02C04A995DC088ED91E00E94DF
:100D2000570A0091D0011091D1012091D201309148
:100D3000D301DC01CB01801B910BA20BB30B843FD1
:100D40009140A105B10508F452C080910001909135
:100D5000010125E0289F8001299F100D112441E009
:100D600067E084ED91E00E94C101800F911F66E071
:100D700070E00E94DF1170930101609300018FEF1A
:100D800093E0861B970B63E070E00E94DF116536ED
:100D9000710510F064E670E07A83698388ED91E074
:100DA0000E94570A6093D0017093D1018093D201C1
:100DB0009093D3011CC04D9B66CF8881886062CF21
:100DC0004B9B83CF888180617FCF4A9BA0CF888156
:100DD00080629CCF88ED91E00E94570A6093CC011D
:100DE0007093CD018093CE019093CF0196CFDF9188
:100DF000CF911F910F9108951F920F920FB60F92EE
:100E000011248F939F93AF93BF9380914002909151
:100E10004102A0914202B09143020196A11DB11D71
:100E20008093400290934102A0934202B093430208
:100E3000BF91AF919F918F910F900FBE0F901F9018
:100E4000189588ED91E00E94450A85ED91E00E9499
:100E500007068FE392E00E94900A85ED91E00E94E0
:100E60001C068FE392E00E94A20BF7CFEF92FF9255
:100E70000F931F93CF93DF93EC01162FF42EE22EE6
:100E80008881861710F0861B182FE981FA8120814E
:100E900081E090E00B8002C0880F991F0A94E2F76E
:100EA00080958223808300E02881021790F58C8151
:100EB0009D81DC01ED91FC910280F381E02D101702
:100EC00011F0211710F46F2D01C060E009958C819D
:100ED0009D81DC01ED91FC910480F581E02D099567
:100EE0008823A9F38C819D81DC01ED91FC91028026
:100EF000F381E02D6E2D09958C819D81DC01ED91B2
:100F0000FC910480F581E02D09958823A9F30F5FFA
:100F1000CBCFE981FA81208181E090E00B8002C093
:100F2000880F991F0A94E2F7822B8083DF91CF917B
:100F30001F910F91FF90EF9008951F93CF93DF9330
:100F4000EC0168816F5F20E04CE00E94360710E002
:100F50001F5F68816F5F20E0412FCE010E9436073E
:100F60001830B1F768816F5F27E04BE0CE010E9437
:100F7000360768816F5F20E04FE0CE010E943607A0
:100F800068816F5F27E04AE0CE010E9436076881E2
:100F90006F5F21E04CE0CE01DF91CF911F910C9467
:100FA00036070F931F93CF93DF93FC01808108E0F6
:100FB000809FE0011124DE0111978D01061B170BA4
:100FC000B80197E0941BA80133E0569547953A95F0
:100FD000E1F7899F400D511D11244C175D0708F062
:100FE000AD010680F781E02DE40FF51F9081AB0184
:100FF00047705527222349F021E030E001C0220F3D
:101000004A95EAF7892F822B09C021E030E001C020
:10101000220F4A95EAF7822F809589238083DF91FA
:10102000CF911F910F9108954F925F926F927F928F
:101030008F929F92AF92BF92CF92DF92EF92FF92E8
:101040000F931F93CF93DF93EC01442E605226E061
:10105000629FF0011124EB55FF4F549036E0639FDF
:1010600080011124E12CF12C87E0A82EB12C2885D9
:1010700039858881E51408F040C0A701420F531F4D
:1010800098E0899FB001112446175707B4F557FF20
:1010900004C0EFEFEE1AFE0AEACFC8018E0D9F1DC5
:1010A0009C0120563F4F3901C12CD12C4701992476
:1010B0004A85C5018C199D09840F911D47FD9A959C
:1010C000089798F4F301249130E00C2C02C0359578
:1010D00027950A94E2F72421495F4C1968857985A0
:1010E000680D791DCE010E94D107FFEFCF1ADF0AEC
:1010F00028E0C216D104E1F6CCCFE52CF12C2E0D60
:101100003F1D48E0849FC001112428173907C0F013
:10111000E885F9853196EE0DFF1DF987E887DF91A7
:10112000CF911F910F91FF90EF90DF90CF90BF90E4
:10113000AF909F908F907F906F905F904F900895A9
:1011400010E04A85410F688579856E0D7F1D20E08E
:10115000CE010E94D1071F5F183099F7D9CF9F9217
:10116000AF92BF92CF92DF92EF92FF920F931F93B5
:10117000CF93DF93EC01662309F482C007E010E00F
:10118000BB24B394EE24E394F12C27E0C22ED12C9F
:10119000E981FA81908197010B8002C0220F331FF1
:1011A0000A94E2F7822F809589238083A12C2881DD
:1011B000A21608F052C0209FC001219F900D11245B
:1011C000EE81FF81E80FF91FEA0DF11D408150E02B
:1011D00080E090E0912C9601281B390BBA0102C0E7
:1011E000759567952A95E2F79B0121703327082EA4
:1011F00001C0220F0A94EAF7922A019688309105DD
:1012000051F78C819D81DC01ED91FC910280F3818D
:10121000E02D6B2D09958C819D81DC01ED91FC9178
:101220000480F581E02D09958823A9F38C819D81A7
:10123000DC01ED91FC910280F381E02D692D09958F
:101240008C819D81DC01ED91FC910480F581E02D84
:1012500009958823A9F3A394AACFE981FA81208173
:10126000C7010B8002C0880F991F0A94E2F7822BF6
:101270008083B39401501109B9E0BB1289CF66C0D5
:1012800000E010E0EE24E394F12CE981FA819081F2
:1012900097010B8002C0220F331F0A94E2F7822FBE
:1012A000809589238083D880D394CC24C394C00EA6
:1012B000DD20D1F18C819D81DC01ED91FC910280DA
:1012C000F381E02D6C2D09958C819D81DC01ED91E0
:1012D000FC910480F581E02D09958823A9F38C8188
:1012E0009D814881409F9001419F300D1124AE8126
:1012F000BF81A20FB31FAD0DB11D1197FC0120815D
:101300003181F901228133816C91F90109958C8138
:101310009D81DC01ED91FC910480F581E02D099522
:101320008823A9F3DA94C4CFE981FA812081C70127
:101330000B8002C0880F991F0A94E2F7822B8083EA
:101340000F5F1F4F0830110509F09FCFDF91CF913C
:101350001F910F91FF90EF90DF90CF90BF90AF90D3
:101360009F9008956EBD08958EB508958DB58078CF
:101370000895FB01258123702064918130E8939FBB
:10138000D00111242A2B928140E2949FB0011124B4
:10139000262B908180E1989FA0011124822F842B1D
:1013A000938148E0949F90011124282B948134E08C
:1013B000939FC0011124822B8CBD858182FB8827DD
:1013C00080F98DBD089581E185B98EE284B98FE001
:1013D00088B917B88DEF8BB982E08AB90895CF9399
:1013E000DF93CDB7DEB72B970FB6F894DEBF0FBEF5
:1013F000CDBF80E094E2A4EFB0E089839A83AB8311
:10140000BC831A861B868EEF898780E89AE1A6E066
:10141000B0E08D839E83AF83B887BE016F5F7F4F3F
:101420008DED91E00E94CF032B960FB6F894DEBFAE
:101430000FBECDBFDF91CF910895CF93DF9300D042
:1014400000D000D0CDB7DEB71D821C821B821A826D
:1014500081E0898386E08E83BE016F5F7F4F8BEDD5
:1014600091E00E94B90926960FB6F894DEBF0FBE30
:10147000CDBFDF91CF91089514BC83E085BD82E09C
:1014800080936E008AEF87BD0895CF93DF93EC01C0
:101490000E94E309CE010E94EF09CE010E941D0ABD
:1014A000CE010E943C0A7894DF91CF910895F89480
:1014B00060914002709141028091420290914302FA
:1014C00078940895EDEDF1E087E091E091838083D9
:1014D00083E291E09093DC018093DB01F093DA01E9
:1014E000E093D9010895EF92FF920F931F93CF934A
:1014F000DF938C017B01D42FC0E0F701EC0FF11DCD
:101500006081662331F0CF5F4D2FC8010E9414081F
:10151000F4CFDF91CF911F910F91FF90EF9008953D
:1015200084E392E00E949D0783E192E090933B0266
:1015300080933A020895262F3091FE01832F6AE0AE
:101540000E94D311913009F42F5F86EF830F8A3008
:1015500010F42F5F03C03A3008F42C5F5091FD0166
:10156000852F6AE00E94D311913009F42F5F86EF36
:10157000850F8A3008F42F5F622F220F770B6D5F83
:101580007F4F70933D0260933C0240933E028091F6
:10159000FC0180FD02C080E201C08AE31F925F93DC
:1015A0001F928F931F923F938BE291E09F938F93B3
:1015B0008FEF91E09F938F930E94321241E06FEF83
:1015C00071E084E392E00E94730A8DB79EB70A9699
:1015D0000FB6F8949EBF0FBE8DBF60E084E392E02B
:1015E0000C94AF08E4E3F2E0062E000C770B685F82
:1015F0007F4F7187608742878091F80124E0829F46
:10160000C001112485559E4F9F938F9388E391E0ED
:101610009F938F938FEF91E09F938F930E9432124D
:1016200041E06FEF71E084E392E00E94730A0F9053
:101630000F900F900F900F900F9060E084E392E076
:101640000C94AF08262F3091F901832F6AE00E9495
:10165000D311913009F42F5F86EF830F8A3010F495
:101660002F5F03C03A3008F42C5F622F220F770BF4
:101670006E5F7F4F70933D0260933C0240933E0249
:101680008091FA0124E0829FC001112485589E4F69
:101690009F938F931F923F9385E391E09F938F9346
:1016A0008FEF91E09F938F930E94321241E06FEF92
:1016B00071E084E392E00E94730A8DB79EB70896AA
:1016C0000FB6F8949EBF0FBE8DBF60E084E392E03A
:1016D0000C94AF08262F3091FB01832F6AE00E9403
:1016E000D311913009F42F5F86EF830F8A3008F40D
:1016F0002F5F622F220F770B6B5F7F4F70933D023E
:1017000060933C0240933E021F923F938BE691E030
:101710009F938F938FEF91E09F938F930E9432124C
:1017200041E06FEF71E084E392E00E94730A0F9052
:101730000F900F900F900F900F9060E084E392E075
:101740000C94AF08EF92FF920F931F93CF937C01FD
:1017500088ED91E00E94570A0091F0011091F1018B
:101760002091F2013091F301DC01CB01801B910B40
:10177000A20BB30B84369105A105B10508F443C053
:101780008091E801811116C02EEF31E04DEF51E05C
:101790006CEF71E089ED91E00E94DA020BEF11E04D
:1017A0002AEF31E049EF51E068EF71E089ED91E017
:1017B0000E94260380910201882391F06091D60156
:1017C0007091D70180E090E00E94D8102AE037EDB8
:1017D00043EA5DE30E943E110E94A910262F01C03A
:1017E00022E04AE065E084E392E00E94360788ED5B
:1017F00091E00E94570A6093F0017093F101809389
:10180000F2019093F3018091D501982F917080FDA2
:1018100006C081FD04C082FBCC27C0F901C0C1E035
:10182000E091EB014E2F50E04E30510508F060C1C1
:10183000FA01EC5CFF4F0C94151282FF59C184E051
:101840008093EB011092330253C182FF05C027E061
:101850002093EB011092330281FF0DC01092EB0137
:1018600081E080933302911109C08091FC018E3197
:1018700009F046C147C1992309F43AC185E064C023
:1018800082FF05C026E02093EB011092330281FF16
:1018900011C08091FE018150883118F48093FE01BF
:1018A00009C087E18093FE01992309F421C11092B8
:1018B000FE011EC1992309F41BC18091FE018F5FB7
:1018C0008093FE01883108F413C1F1CF82FF11C06B
:1018D00084E08093EB0183E0809333022091FE014A
:1018E0004091FD0160E089ED91E00E94600210925C
:1018F000E8019091D50191FF08C08091FD018150D0
:101900008C3308F08BE38093FD0190FFF1C0809150
:10191000FD018F5F8C3318F48093FD01E9C01092B4
:10192000FD01E6C082FF05C02CE02093EB01109280
:10193000330281FF12C01092EB0181E080933302E9
:10194000992309F492CF88E08093EB0181E08093A2
:10195000E80182E080933302CBC09111F4CFC8C07C
:1019600082FF05C029E02093EB011092330281FF32
:1019700011C08091F801815019F08093F8010AC0DC
:1019800087E08093F801992309F4B2C081E0809345
:10199000F801AEC0992309F4ABC08091F8018F5FC4
:1019A0008093F801883008F4A3C0F0CF82FF05C00F
:1019B0002AE02093EB011092330281FF11C0809145
:1019C000F901815019F08093F9010AC08FE18093E9
:1019D000F901992309F48CC081E08093F90188C052
:1019E000992309F485C08091F9018F5F8093F901F3
:1019F000803208F47DC0F0CF82FF05C02BE0209339
:101A0000EB011092330281FF11C08091FA018150E5
:101A100019F08093FA010AC08CE08093FA019923AF
:101A200009F466C081E08093FA0162C0992309F449
:101A30005FC08091FA018F5F8093FA018D3008F4C6
:101A400057C0F0CF82FF14C087E08093EB0183E0A2
:101A5000809333020091FB012091FA014091F9013A
:101A60006091F80189ED91E00E9496021092E801E0
:101A70009091D50191FF08C08091FB01815084367F
:101A800008F083E68093FB0190FF32C08091FB0158
:101A90008F5F843618F48093FB012AC01092FB01FB
:101AA00027C082FF04C01092EB011092330281FF25
:101AB0000CC01092EB0181E080933302992309F46A
:101AC000D4CE8DE08093EB0144CF9111FACF10C0BA
:101AD00082FF06C02CE02093EB0123E02093330229
:101AE00081FD10920201992319F081E08093020197
:101AF0008091EB01843008F4B8CE1092E70109C060
:101B0000811107C08091E701811103C081E08093BA
:101B1000E7018091FC019091E901891731F19091E1
:101B2000E701992311F18093E9016AE00E94D31142
:101B3000911105C081E08093EB0183E006C09330F2
:101B400039F482E08093EB0181E0809333020DC091
:101B5000953011F483E0F6CF973039F41092EB0111
:101B600082E0809333021092E70180913302843047
:101B700009F473C1811150C09091EA018091EB0189
:101B8000981779F188ED91E00E94570A0091EC01D5
:101B90001091ED012091EE013091EF01DC01CB01BC
:101BA000801B910BA20BB30BC297A105B10590F05E
:101BB0008091E5018F5F8093E50188ED91E00E94BF
:101BC000570A6093EC017093ED018093EE019093BE
:101BD000EF01C1E08091E50188300CF446C188EF47
:101BE00052C088ED91E00E94570A0091EC011091DB
:101BF000ED012091EE013091EF01DC01CB01801B62
:101C0000910BA20BB30BC297A105B10508F466C0F6
:101C10008091E5018F5F53C0813009F062C09091DF
:101C2000EA018091EB01981789F188ED91E00E941B
:101C3000570A0091EC011091ED012091EE013091D5
:101C4000EF01DC01CB01801B910BA20BB30BC29700
:101C5000A105B10590F08091E50181508093E501E7
:101C600088ED91E00E94570A6093EC017093ED01BA
:101C70008093EE019093EF01C1E08091E501893FEF
:101C80000CF0F3C088E08093E501EBC088ED91E0B3
:101C90000E94570A0091EC011091ED012091EE0194
:101CA0003091EF01DC01CB01801B910BA20BB30B38
:101CB000C297A105B10590F08091E5018150809314
:101CC000E50188ED91E00E94570A6093EC01709362
:101CD000ED018093EE019093EF01C1E08091E50169
:101CE000B6C0823009F050C09091EA018091EB01BA
:101CF000981779F188ED91E00E94570A0091EC0164
:101D00001091ED012091EE013091EF01DC01CB014A
:101D1000801B910BA20BB30B4997A105B10590F065
:101D20008091E60181508093E60188ED91E00E9468
:101D3000570A6093EC017093ED018093EE0190934C
:101D4000EF01C1E08091E601813E0CF08EC080E29F
:101D500051C088ED91E00E94570A0091EC0110916A
:101D6000ED012091EE013091EF01DC01CB01801BF0
:101D7000910BA20BB30B4997A105B10508F465C0FF
:101D80008091E601815052C0833009F06EC090917D
:101D9000EA018091EB01981781F188ED91E00E94B2
:101DA000570A0091EC011091ED012091EE01309164
:101DB000EF01DC01CB01801B910BA20BB30B499708
:101DC000A105B10590F08091E6018F5F8093E60157
:101DD00088ED91E00E94570A6093EC017093ED0149
:101DE0008093EE019093EF01C1E08091E601803293
:101DF000E4F180EE8093E60134C088ED91E00E942A
:101E0000570A0091EC011091ED012091EE01309103
:101E1000EF01DC01CB01801B910BA20BB30B4997A7
:101E2000A105B10590F08091E6018F5F8093E601F6
:101E300088ED91E00E94570A6093EC017093ED01E8
:101E40008093EE019093EF01C1E08091E601811152
:101E50000CC084E08093330208C01092E601109217
:101E6000E5018091EB018093EA0188ED91E00E9409
:101E7000570A0091F4011091F5012091F60130917B
:101E8000F701DC01CB01801B910BA20BB30B843655
:101E90009105A105B10518F4CC2309F445C1409181
:101EA000340228E0429FA001112460E070E080919C
:101EB0003A0290913B020E942412E091EA018E2F97
:101EC00090E08E30910568F088ED91E00E94570A0D
:101ED0006093F4017093F5018093F6019093F701FC
:101EE00023C1FC01EE5BFF4F0C9415124091E501FC
:101EF0006091E601C7010E949B0AE6CF4091E5018F
:101F00006091E601C7010E94F20ADECF4091E5012F
:101F10006091E601C7010E94220BD6CF4091E501F6
:101F20006091E601C7010E946A0BCECF2091E501C6
:101F30008091E601082E000C990B069690933D02C5
:101F400080933C0220933E026CE371E0DCC0209160
:101F5000E5018091E601082E000C990B07969093FD
:101F60003D0280933C0220933E028091FE011F922D
:101F70008F9381E491E085C02091E5018091E60195
:101F8000082E000C990B079690933D0280933C021B
:101F900020933E028091FD011F928F9387E491E090
:101FA00070C02091E5018091E601082E000C990B8C
:101FB000069690933D0280933C0220933E026FE48C
:101FC00071E0A1C02091E5018091E601082E000C8E
:101FD000990B029690933D0280933C0220933E021F
:101FE0008091F80124E0829FC001112485559E4F05
:101FF0009F938F9384E591E044C02091E501809107
:10200000E601082E000C990B049690933D028093F4
:102010003C0220933E028091F9011F928F938BE541
:1020200091E02FC02091E5018091E601082E000C7F
:10203000990B029690933D0280933C0220933E02BE
:102040008091FA0124E0829FC001112485589E4F9F
:102050009F938F9382E691E014C02091E5018091D7
:10206000E601082E000C990B019690933D02809397
:102070003C0220933E028091FB011F928F9389E6E0
:1020800091E09F938F938FEF91E09F938F930E94A6
:10209000321241E06FEF71E084E392E00E94730A34
:1020A00060E084E392E00E94AF080F900F900F90E1
:1020B0000F900F900F9008CF2091E5018091E601DD
:1020C000082E000C990B089690933D0280933C02D9
:1020D00020933E0263E771E016C02091E5018091F4
:1020E000E601082E000C990B089690933D02809310
:1020F0003C0220933E026091020184E0689FB0019F
:10210000112469587E4F8FEF91E00E942B1241E01D
:102110006FEF71E084E392E00E94730A60E084E371
:1021200092E00E94AF08D0CECF911F910F91FF9007
:10213000EF900895E4E3F2E08BED91E095838483E2
:1021400084E0808385E290E09283818382E08383D0
:1021500008950E941D1188F09F5798F0B92F992774
:10216000B751B0F0E1F0660F771F881F991F1AF082
:10217000BA95C9F714C0B13091F00E943711B1E09F
:1021800008950C943711672F782F8827B85F39F09E
:10219000B93FCCF3869577956795B395D9F73EF41B
:1021A00090958095709561957F4F8F4F9F4F0895C3
:1021B000E89409C097FB3EF49095809570956195E1
:1021C0007F4F8F4F9F4F9923A9F0F92F96E9BB2797
:1021D0009395F695879577956795B795F111F8CF13
:1021E000FAF4BB0F11F460FF1BC06F5F7F4F8F4F7E
:1021F0009F4F16C0882311F096E911C0772321F074
:102200009EE8872F762F05C0662371F096E8862F0B
:1022100070E060E02AF09A95660F771F881FDAF762
:10222000880F9695879597F9089557FD9058440F14
:10223000551F59F05F3F71F04795880F97FB991F25
:1022400061F09F3F79F087950895121613061406E2
:10225000551FF2CF4695F1DF08C01616170618066F
:10226000991FF1CF86957105610508940895E8944A
:10227000BB2766277727CB0197F908950E94511154
:102280000C94C2110E94B41138F00E94BB1120F0CE
:10229000952311F00C94AB110C94B11111240C94F2
:1022A00038110E94151170F3959FC1F3950F50E0FE
:1022B000551F629FF001729FBB27F00DB11D639FF8
:1022C000AA27F00DB11DAA1F649F6627B00DA11D9E
:1022D000661F829F2227B00DA11D621F739FB00D44
:1022E000A11D621F839FA00D611D221F749F3327B4
:1022F000A00D611D231F849F600D211D822F762F4D
:102300006A2F11249F5750409AF0F1F088234AF029
:10231000EE0FFF1FBB1F661F771F881F9150504095
:10232000A9F79E3F510580F00C94AB110C94381125
:102330005F3FE4F3983ED4F3869577956795B7951C
:10234000F795E7959F5FC1F7FE2B880F911D969536
:10235000879597F9089597F99F6780E870E060E0A6
:1023600008959FEF80EC089500240A94161617062E
:1023700018060906089500240A9412161306140676
:1023800005060895092E0394000C11F4882352F0D9
:10239000BB0F40F4BF2B11F460FF04C06F5F7F4F91
:1023A0008F4F9F4F0895991B79E004C0991F96178E
:1023B00008F0961B881F7A95C9F780950895AA1B87
:1023C000BB1B51E107C0AA1FBB1FA617B70710F020
:1023D000A61BB70B881F991F5A95A9F78095909552
:1023E000BC01CD010895A1E21A2EAA1BBB1BFD0161
:1023F0000DC0AA1FBB1FEE1FFF1FA217B307E407E4
:10240000F50720F0A21BB30BE40BF50B661F771F3B
:10241000881F991F1A9469F760957095809590951B
:102420009B01AC01BD01CF010895EE0FFF1F059088
:10243000F491E02D0994FB01DC0102C001900D92A2
:1024400041505040D8F70895DC0101C06D934150D0
:102450005040E0F70895FB01DC0101900D9200204F
:10246000E1F70895AEE0B0E0E8E3F2E10C94F31494
:102470000D891E8986E08C831A8309838FEF9FE77D
:102480009E838D83AE01475E5F4F6F89788DCE014D
:1024900001960E945412EF81F885E00FF11F10821F
:1024A0002E96E4E00C940F15ABE0B0E0EAE5F2E123
:1024B0000C94E5146C017B018A01FC0117821682E1
:1024C000838181FFCCC1CE0101963C01F60193814D
:1024D000F70193FD859193FF81917F01882309F492
:1024E000BAC1853239F493FD859193FF81917F01C3
:1024F000853229F4B60190E00E944B14E7CF912C6D
:10250000212C312CFFE1F315D8F08B3279F038F41F
:10251000803279F08332A1F4232D20611DC08D32E9
:1025200061F0803369F4232D216016C0832D826011
:10253000382EE32DE4603E2E2AC0F32DF8601DC036
:1025400037FC2DC020ED280F2A3040F08E32B9F430
:1025500036FC81C1232D2064322E19C036FE06C000
:102560008AE0989E200D1124922E11C0EAE02E9E42
:10257000200D1124222EF32DF0623F2E08C08C3640
:1025800021F4832D8068382E02C0883641F4F7018B
:1025900093FD859193FF81917F018111B3CF982F96
:1025A0009F7D9554933028F40C5F1F4F9FE39983D0
:1025B0000DC0833631F0833771F0833509F059C08F
:1025C00021C0F801808189830E5F1F4F8824839486
:1025D000912C530113C02801F2E04F0E511CF80159
:1025E000A080B18036FE03C0692D70E002C06FEF9D
:1025F0007FEFC5010E9440144C018201F32DFF774B
:102600003F2E16C0280122E0420E511CF801A08086
:10261000B18036FE03C0692D70E002C06FEF7FEF1E
:10262000C5010E9435144C01F32DF0683F2E820144
:1026300033FC1BC0822D90E088169906B0F4B601D9
:1026400080E290E00E944B142A94F4CFF50137FC0D
:10265000859137FE81915F01B60190E00E944B1495
:1026600021102A9421E0821A91088114910471F7B3
:10267000E8C0843611F0893641F5F80137FE07C00D
:1026800060817181828193810C5F1F4F08C06081DE
:102690007181072E000C880B990B0E5F1F4FF32DD5
:1026A000FF763F2E97FF09C09095809570956195B4
:1026B0007F4F8F4F9F4FF0683F2E2AE030E0A301FD
:1026C0000E948714882E861845C0853731F4232D43
:1026D0002F7EB22E2AE030E025C0932D997FB92EAF
:1026E0008F36C1F018F4883579F0B5C0803719F00D
:1026F000883721F0B0C0E92FE061BE2EB4FE0DC0D6
:10270000FB2DF460BF2E09C034FE0AC0292F2660BD
:10271000B22E06C028E030E005C020E130E002C063
:1027200020E132E0F801B7FE07C06081718182814B
:1027300093810C5F1F4F06C06081718180E090E043
:102740000E5F1F4FA3010E948714882E8618FB2D51
:10275000FF773F2E36FE0DC0232D2E7FA22E89142B
:1027600058F434FE0BC032FC09C0832D8E7EA82E97
:1027700005C0B82CA32C03C0B82C01C0B92CA4FEF2
:102780000FC0FE01E80DF11D8081803321F49A2DE8
:10279000997EA92E09C0A2FE06C0B394B39404C0CA
:1027A0008A2D867809F0B394A3FC11C0A0FE06C060
:1027B000B21488F4280C922C9B180EC0B21460F44A
:1027C000B60180E290E00E944B14B394F7CFB214AC
:1027D00018F42B1802C0982C212CA4FE10C0B601AE
:1027E00080E390E00E944B14A2FE17C0A1FC03C03E
:1027F00088E790E002C088E590E0B6010CC08A2D21
:10280000867859F0A1FE02C08BE201C080E2A7FCED
:102810008DE2B60190E00E944B14891438F4B601A1
:1028200080E390E00E944B149A94F7CF8A94F301CE
:10283000E80DF11D8081B60190E00E944B148110DB
:10284000F5CF222009F442CEB60180E290E00E944A
:102850004B142A94F6CFF6018681978102C08FEF40
:102860009FEF2B96E2E10C940115FC01059061505D
:1028700070400110D8F7809590958E0F9F1F089596
:10288000FC016150704001900110D8F7809590953F
:102890008E0F9F1F08950F931F93CF93DF93FB011C
:1028A000238121FD03C08FEF9FEF2CC022FF16C0B4
:1028B00046815781248135814217530744F4A08112
:1028C000B1819D012F5F3F4F318320838C932681FF
:1028D00037812F5F3F4F3783268314C08B01EC0174
:1028E000FB010084F185E02D0995892BE1F6D801E3
:1028F00016968D919C911797019617969C938E939F
:102900001697CE01DF91CF911F910F910895FA0193
:10291000AA27283051F1203181F1E8946F936E7F1E
:102920006E5F7F4F8F4F9F4FAF4FB1E03ED0B4E00F
:102930003CD0670F781F891F9A1FA11D680F791F50
:102940008A1F911DA11D6A0F711D811D911DA11D61
:1029500020D009F468943F912AE0269F1124301971
:10296000305D3193DEF6CF010895462F4770405D0C
:102970004193B3E00FD0C9F7F6CF462F4F70405DBB
:102980004A3318F0495D31FD4052419302D0A9F716
:10299000EACFB4E0A6959795879577956795BA9510
:1029A000C9F700976105710508959B01AC010A2ED6
:1029B00006945795479537952795BA95C9F7620FAD
:1029C000731F841F951FA01D08952F923F924F9251
:1029D0005F926F927F928F929F92AF92BF92CF92AF
:1029E000DF92EF92FF920F931F93CF93DF93CDB7B8
:1029F000DEB7CA1BDB0B0FB6F894DEBF0FBECDBF30
:102A000009942A88398848885F846E847D848C8400
:102A10009B84AA84B984C884DF80EE80FD800C8109
:102A20001B81AA81B981CE0FD11D0FB6F894DEBFEC
:0C2A30000FBECDBFED010895F894FFCF5C
:102A3C00FF030100000000CF0379037F0385038DA2
:102A4C000391039F03AF03B703B30304046F0500A3
:102A5C00000000B909B209B609B40925642563253B
:102A6C0030326420002564202573200054696D6584
:102A7C0000483A256420004D3A2530326420004449
:102A8C006174650044793A2573200044743A2564D6
:102A9C0020004D743A25732000593A3230253032DB
:102AAC00642000414C53004F6666004F6E20004A74
:102ABC00616E00466562004D617200417072004D9E
:102ACC006179004A756E004A756C00417567005358
:102ADC006570004F6374004E6F7600446563004D63
:102AEC006F6E005475650057656400546875004638
:0C2AFC007269005361740053756E000095
:00000001FF
