:100000000C944A010C9472010C9472010C947201CC
:100010000C9472010C9472010C9472010C94720194
:100020000C9472010C9472010C9472010C94720184
:100030000C9472010C9472010C94CA050C94720118
:100040000C9472010C9472010C9472010C94720164
:100050000C9472010C9472010C9472010C94720154
:100060000C9472010C9472010000000000015F000A
:1000700000000001070007000003147F147F14052F
:10008000242A7F2A12052313086462053649552263
:1000900050050700000000011C224100000341221E
:1000A0001C00000314083E08140508083E08080553
:1000B000A0600000000208080808080540000000D1
:1000C00000012010080402053E5149453E05427FCB
:1000D0004000000342615149460522414949360525
:1000E0001814127F10052745454539053C4A4949F2
:1000F00030050171090503053649494936050649A8
:1001000049493E0524000000000156360000000267
:10011000081422410004121212121205412214087E
:1001200000040601510906053E415D551E057C0A85
:10013000090A7C057F49494936053E41414122056E
:100140007F4141221C057F49494941057F09090931
:1001500001053E41415132057F0808087F05417F76
:100160004100000320413F0000037F0814224105A5
:100170007F40404000047F0204027F057F020408A4
:100180007F053E4141413E057F09090906053E4183
:1001900051215E057F09192946054649494931051E
:1001A00001017F0101053F4040403F051F204020E5
:1001B0001F053F4030403F056314081463050304E6
:1001C000780403056151494543057F410000000261
:1001D000034618600004417F00000002060106008B
:1001E0000003404040404005010204000003205449
:1001F000547800047F4848300004384444440004E4
:100200003048487F0004385454580004087E0909D7
:1002100000040C5252523E057F0804047805447DC8
:100220004000000344443D0000037F1028440004C4
:10023000417F400000037E027C027C057C0804783C
:1002400000043844444438057E12120C00040C1299
:10025000120A7E057C040408000448545424000457
:10026000043F444400043C40407C00041C204020E7
:100270001C053C4078403C054428102844050C509F
:10028000503C000462524A4600050705070000037F
:100290002D09970B11241FBECFEFD8E0DEBFCDBFD5
:1002A00011E0A0E0B1E0E4E2F0E202C005900D92BE
:1002B000A434B107D9F721E0A4E4B1E001C01D9254
:1002C000A43BB207E1F711E0CAE4D1E004C02197F2
:1002D000FE010E94120DC834D107C9F70E94EF0534
:1002E0000C9410100C940000AF92CF92DF92EF921A
:1002F0000F931F9388E0089F800111248E2D817039
:10030000082B80E2289F90011124202B8E2D8670CF
:10031000282B80E4489FA0011124242B80E8689FAB
:10032000B0011124622B60937A0080E4C89E6001C2
:1003300011248A2D8770C82AC0927B001F910F91CB
:10034000EF90DF90CF90AF90089520917A00E42F46
:10035000E69580E8E89FF0011124842F817090E0F9
:1003600036E0880F991F3A95E1F78E2B962F917002
:10037000892B6E70862B80937C008AE68A95F1F734
:1003800000C0822F806480937A0080917A0086FD7D
:10039000FCCF809178002091790090E0922B089515
:1003A000CF92DF92EF92FF920F931F93CF93DF9341
:1003B0001F92CDB7DEB76983DC018D919C91E22E4F
:1003C000F12CDC01ED91FC910488F589E02D24E607
:1003D000C22ED12C8A0121E0AE014F5F5F4F60ED4C
:1003E00009950F90DF91CF911F910F91FF90EF90A2
:1003F000DF90CF900895CF92DF92EF92FF920F930C
:100400001F93CF93DF9300D01F92CDB7DEB76B0160
:100410007A01890123E0AE014F5F5F4F60E00E94E7
:10042000D0019981292F2695269526952E71322F58
:10043000330F330F230F9F70920FF60190839A8131
:10044000292F2695269526952E71322F330F330F9F
:10045000230F9F70920FF70190839B81292F269580
:10046000269526952E71322F330F330F230F9F7051
:10047000920FF80190830F900F900F90DF91CF9122
:100480001F910F91FF90EF90DF90CF900895FC01A6
:100490008281846A8093BC000895FC018281846912
:1004A0008093BC0008956093BB00FC018281846846
:1004B0008093BC0008956170FC0163830895FC0182
:1004C0008091BB00238190E4299F900111249281A7
:1004D0009468292B2093BC0008952091B900909135
:1004E000B900287F31E0283009F030E0987F81E0C2
:1004F000903109F080E0832B08958091BC008078D2
:1005000008958091B900807108953091B9002091CB
:10051000B9009091B900387F41E0383109F040E0EE
:10052000287F81E0283209F080E0842B987F21E049
:10053000903409F020E0822B08950F931F93CF93FE
:10054000DF938C01EB01688179818A819B81F801BD
:1005500064837583868397832C813D814E815F817F
:100560000E94F00CDA01C9014097A109B109B695C2
:10057000A795979587958093B8001092B9008885C4
:10058000982F9E7F89858170892B8093BA008A85F8
:10059000F801828384608093BC00DF91CF911F912A
:1005A0000F9108956F927F928F929F92AF92BF9218
:1005B000CF92DF92EF92FF920F931F93CF93DF932F
:1005C000EC01962E3A01822E2091B8002C9DC0019C
:1005D0002D9D900D11248E9D60018F9DD00C9E9DB0
:1005E000D00C1124E881F9810280F381E02DCE0145
:1005F0000995E881F9810484F585E02DCE010995FE
:10060000811107C0C114D10421F0B1E0CB1AD10887
:10061000F0CFE881F9810680F781E02D692DCE01C8
:100620000995E881F9810684F785E02DCE010995C9
:10063000811104C0C114D10409F05CC0E881F981C2
:100640000088F189E02DCE0109958823B9F1530185
:10065000680C711C88248394E881F9816A147B04F6
:10066000C1F0D5016D915D010680F781E02DCE01CD
:100670000995E881F9810684F785E02DCE01099579
:1006800081113CC0C114D104C9F1F1E0CF1AD108E5
:10069000F0CF0280F381E02DCE010995E881F98148
:1006A0000484F585E02DCE010995811130C0C11477
:1006B000D10469F181E0C81AD108F0CFE881F9814D
:1006C0000480F581E02DCE010995812C81E0CD28B3
:1006D00009F480E08821DF91CF911F910F91FF9065
:1006E000EF90DF90CF90BF90AF909F908F907F90D2
:1006F0006F900895E1E0CE1AD10893CFE881F98197
:100700000088F189E02DCE0109958822A5CF692DB9
:100710006160E881F9810680F781E02DCE010995BD
:10072000E881F9810684F785E02DCE0109958111D4
:1007300007C0C114D10421F0A1E0CA1AD108F0CF3A
:10074000E881F9810088F189E02DCE0109958822A0
:10075000E881F981B1E0EB16F104E9F40084F18558
:10076000E02D60E0CE010995E881F9810284F385EE
:10077000E02DCE010995E881F9810684F785E02D09
:10078000CE010995811124C0C114D10409F1E1E021
:10079000CE1AD108F0CF0084F185E02D61E0CE01C2
:1007A0000995E881F9810284F385E02DCE01099550
:1007B000E881F9810684F785E02DCE010995811144
:1007C00018C0C114D104A9F0B1E0CB1AD108F0CF00
:1007D000E881F9810480F581E02DCE010995E88159
:1007E000F9810284F385E02DCE010995D8018C931F
:1007F0006DCFE1E0EE1AF1083801A12CB12CBFEF6A
:10080000AB1ABB0A61E0AE14BF0408F060E0E881F7
:10081000F9810084F185E02DCE010995E881F98107
:100820000284F385E02DCE010995F30181933F0108
:10083000E881F9810684F785E02DCE0109958823AA
:10084000A9F0AE14BF04D8F2E881F9810480F581E3
:10085000E02DCE010995E00EF11EE881F9810284B8
:10086000F385E02DCE010995D701C1CFC114D10484
:1008700041F3F1E0CF1AD108DBCFAF92BF92CF9214
:10088000DF92EF92FF920F931F93CF93DF93EC01D0
:10089000D62EB42EA52E79012091B800209FC0013C
:1008A000219F900D1124E89E8001E99E100DF89E75
:1008B000100D1124E881F9810280F381E02DCE0131
:1008C0000995E881F9810484F585E02DCE0109952B
:1008D000811106C00115110519F001501109F1CF60
:1008E000E881F9810680F781E02D6D2DCE01099513
:1008F000E881F9810684F785E02DCE010995811103
:1009000004C00115110509F044C0E881F98100888F
:10091000F189E02DCE010995882319F1CB2CDA2C31
:100920005601AE0CBF1CFF24F394AC14BD04D1F0EF
:10093000F60161916F01E881F9810680F781E02D70
:10094000CE010995E881F9810684F785E02DCE0175
:100950000995811121C001151105F1F0015011090E
:10096000F1CFF12CE881F9810480F581E02DCE01F1
:10097000099581E0012B09F480E08F21DF91CF916F
:100980001F910F91FF90EF90DF90CF90BF90AF90AD
:10099000089501501109ACCFE881F9810088F189EF
:1009A000E02DCE010995F822C0CFAF92CF92EF9201
:1009B0000F93A12CC12C86E0E82E00E020E041E05E
:1009C00061E08CE491E00E9474010F91EF90CF9070
:1009D000AF9008950F931F93CF93DF93EC0188811D
:1009E0008E7F88834D99B5C083FFB3C080E591E0C9
:1009F0000E94220900914401109145012091460175
:100A000030914701DC01CB01801B910BA20BB30B92
:100A1000C297A105B10508F49CC088818160877FD9
:100A2000888388818D7F88834B9998C084FF96C086
:100A300080E591E00E942209009144011091450156
:100A40002091460130914701DC01CB01801B910BC5
:100A5000A20BB30BC297A105B10508F47FC0888132
:100A600082608F7E888388818B7F88834A997BC050
:100A700084FF79C080E591E00E9422090091440141
:100A8000109145012091460130914701DC01CB01D5
:100A9000801B910BA20BB30BC297A105B10508F403
:100AA00062C0888184608F7D88834D9B04C04B9B8E
:100AB00002C04A995DC080E591E00E942209009140
:100AC00048011091490120914A0130914B01DC010C
:100AD000CB01801B910BA20BB30B843F9140A1056E
:100AE000B10508F452C0809100019091010125E008
:100AF000289F8001299F100D112441E067E08CE4BC
:100B000091E00E94A501800F911F66E070E00E94B5
:100B1000DC0C70930101609300018FEF93E0861B62
:100B2000970B63E070E00E94DC0C6536710510F0F5
:100B300064E670E07A83698380E591E00E9422098F
:100B4000609348017093490180934A0190934B014F
:100B50001CC04D9B66CF8881886062CF4B9B83CF42
:100B6000888180617FCF4A9BA0CF888180629CCFA3
:100B700080E591E00E942209609344017093450151
:100B8000809346019093470196CFDF91CF911F91BB
:100B90000F9108951F920F920FB60F9211248F9309
:100BA0009F93AF93BF938091B0019091B101A091B9
:100BB000B201B091B3010196A11DB11D8093B001A6
:100BC0009093B101A093B201B093B301BF91AF91E3
:100BD0009F918F910F900FBE0F901F90189580E5F9
:100BE00091E00E9410098DE491E00E94D5048FEA03
:100BF00091E00E9457098DE491E00E94EA048FEA97
:100C000091E00E94CD09F7CFEF92FF920F931F93CF
:100C1000CF93DF93EC01162FF42EE22E88818617F6
:100C200010F0861B182FE981FA81208181E090E085
:100C30000B8002C0880F991F0A94E2F780958223E7
:100C4000808300E02881021790F58C819D81DC0172
:100C5000ED91FC910280F381E02D101711F0211726
:100C600010F46F2D01C060E009958C819D81DC013D
:100C7000ED91FC910480F581E02D09958823A9F37D
:100C80008C819D81DC01ED91FC910280F381E02D4E
:100C90006E2D09958C819D81DC01ED91FC91048084
:100CA000F581E02D09958823A9F30F5FCBCFE9816A
:100CB000FA81208181E090E00B8002C0880F991FAB
:100CC0000A94E2F7822B8083DF91CF911F910F91DD
:100CD000FF90EF9008951F93CF93DF93EC0168810D
:100CE0006F5F20E04CE00E94040610E01F5F688107
:100CF0006F5F20E0412FCE010E9404061830B1F74B
:100D000068816F5F27E04BE0CE010E940406688196
:100D10006F5F20E04FE0CE010E94040668816F5FA4
:100D200027E04AE0CE010E94040668816F5F21E05F
:100D30004CE0CE01DF91CF911F910C9404060F93EC
:100D40001F93CF93DF93FC01808108E0809FE00137
:100D50001124DE0111978D01061B170BB80197E0D6
:100D6000941BA80133E0569547953A95E1F7899F82
:100D7000400D511D11244C175D0708F0AD01068090
:100D8000F781E02DE40FF51F9081AB0147705527E7
:100D9000222349F021E030E001C0220F4A95EAF712
:100DA000892F822B09C021E030E001C0220F4A9533
:100DB000EAF7822F809589238083DF91CF911F915D
:100DC0000F9108955F926F927F928F929F92AF9250
:100DD000BF92CF92DF92EF92FF920F931F93CF9328
:100DE000DF93EC01605226E0629FF0011124E35989
:100DF000FF4F549036E0639F80011124E12CF12CC9
:100E000087E0A82EB12C288539858881E51408F063
:100E100040C0A701420F531F98E0899FB0011124E1
:100E200046175707B4F557FF04C0EFEFEE1AFE0A56
:100E3000EACFC8018E0D9F1D9C0128593F4F3901F3
:100E4000C12CD12C470199244A85C5018C199D09D3
:100E5000840F911D47FD9A95089798F4F30124910A
:100E600030E00C2C02C0359527950A94E2F72170EA
:100E7000495F4C1968857985680D791DCE010E94FE
:100E80009F06FFEFCF1ADF0A28E0C216D104E1F671
:100E9000CCCFE52CF12C2E0D3F1D48E0849FC001E6
:100EA000112428173907B8F0E885F9853196EE0D39
:100EB000FF1DF987E887DF91CF911F910F91FF9078
:100EC000EF90DF90CF90BF90AF909F908F907F90EA
:100ED0006F905F90089510E04A85410F688579858D
:100EE0006E0D7F1D20E0CE010E949F061F5F18300F
:100EF00099F7DACF9F92AF92BF92CF92DF92EF92A3
:100F0000FF920F931F93CF93DF93EC01662309F4B5
:100F100082C007E010E0BB24B394EE24E394F12CEC
:100F200027E0C22ED12CE981FA81908197010B80B4
:100F300002C0220F331F0A94E2F7822F8095892383
:100F40008083A12C2881A21608F052C0209FC001E6
:100F5000219F900D1124EE81FF81E80FF91FEA0D0A
:100F6000F11D408150E080E090E0912C9601281B1B
:100F7000390BBA0102C0759567952A95E2F79B0176
:100F800021703327082E01C0220F0A94EAF7922A13
:100F900001968830910551F78C819D81DC01ED919E
:100FA000FC910280F381E02D6B2D09958C819D8150
:100FB000DC01ED91FC910480F581E02D09958823F9
:100FC000A9F38C819D81DC01ED91FC910280F3817C
:100FD000E02D692D09958C819D81DC01ED91FC91BD
:100FE0000480F581E02D09958823A9F3A394AACF65
:100FF000E981FA812081C7010B8002C0880F991F07
:101000000A94E2F7822B8083B39401501109B9E06E
:10101000BB1289CF66C000E010E0EE24E394F12C0F
:10102000E981FA81908197010B8002C0220F331F62
:101030000A94E2F7822F809589238083D880D39405
:10104000CC24C394C00EDD20D1F18C819D81DC01C4
:10105000ED91FC910280F381E02D6C2D09958C813E
:101060009D81DC01ED91FC910480F581E02D0995D5
:101070008823A9F38C819D814881409F9001419FE5
:10108000300D1124AE81BF81A20FB31FAD0DB11D74
:101090001197FC0120813181F901228133816C910A
:1010A000F90109958C819D81DC01ED91FC91048011
:1010B000F581E02D09958823A9F3DA94C4CFE9815D
:1010C000FA812081C7010B8002C0880F991F0A9402
:1010D000E2F7822B80830F5F1F4F0830110509F064
:1010E0009FCFDF91CF911F910F91FF90EF90DF90F5
:1010F000CF90BF90AF909F9008956EBD08958EB52C
:1011000008958DB580780895FB01258123702064B2
:10111000918130E8939FD00111242A2B928140E2E3
:10112000949FB0011124262B908180E1989FA0010B
:101130001124822F842B938148E0949F90011124E5
:10114000282B948134E0939FC0011124822B8CBD05
:10115000858182FB882780F98DBD089581E185B95D
:101160008EE284B98FE088B917B88DEF8BB982E031
:101170008AB90895CF93DF93CDB7DEB72B970FB61B
:10118000F894DEBF0FBECDBF80E094E2A4EFB0E0E4
:1011900089839A83AB83BC831A861B868EEF8987EB
:1011A00080E89AE1A6E0B0E08D839E83AF83B887A4
:1011B000BE016F5F7F4F85E591E00E949D022B96F7
:1011C0000FB6F894DEBF0FBECDBFDF91CF9108956B
:1011D000CF93DF9300D000D000D0CDB7DEB71D8213
:1011E0001C821B821A8281E0898386E08E83BE0185
:1011F0006F5F7F4F83E591E00E94840826960FB6CB
:10120000F894DEBF0FBECDBFDF91CF91089514BC1F
:1012100083E085BD82E080936E008AEF87BD0895EC
:10122000CF93DF93EC010E94AE08CE010E94BA0872
:10123000CE010E94E808CE010E9407097894DF9150
:10124000CF910895F8946091B0017091B1018091AF
:10125000B2019091B30178940895E5E5F1E086E05C
:1012600091E09183808382E291E090935401809396
:101270005301F0935201E09351010895EF92FF92D0
:101280000F931F93CF938C017B01C0E0F701EC0F0C
:10129000F11D6081662329F0CF5FC8010E94E2063C
:1012A000F5CFCF911F910F91FF90EF90089584EAB1
:1012B00091E00E946B0683E891E09093AB018093EC
:1012C000AA010895CF93DF93C62FD42F20916E01EA
:1012D000822F6AE00E94D00C913009F4CF5F86EF34
:1012E000820F8A3010F4CF5F03C02A3008F4CC5F3D
:1012F00020916D01822F6AE00E94D00C913009F498
:10130000CF5F2A502A3008F4CF5F4091A40188E0D3
:10131000489FA001112460E070E08091AA019091A3
:10132000AB010E94180D6C2F70E06D5F7F4F7093C2
:10133000AD016093AC01D093AE0190916D018091AD
:101340006C0180FD02C080E201C08AE31F929F937E
:101350001F928F9380916E011F928F938AE291E08A
:101360009F938F938FE691E09F938F930E94260D1A
:101370006FE671E084EA91E00E943E098DB79EB766
:101380000A960FB6F8949EBF0FBE8DBF60E084EA48
:1013900091E0DF91CF910C947A07CF92DF92EF9298
:1013A000FF920F931F93CF938C0180E591E00E94F1
:1013B0002209C0906401D0906501E0906601F09030
:1013C0006701DC01CB018C199D09AE09BF09843688
:1013D0009105A105B10568F12EE631E04DE651E039
:1013E0006CE671E081E591E00E94FB0160914E01A5
:1013F00070914F0180E090E00E94D50B2AE037ED1C
:1014000043EA5DE30E943B0C0E94A60B262F4AE0B4
:1014100065E084EA91E00E94040680E591E00E9484
:101420002209609364017093650180936601909333
:10143000670180914D01282F217080FD06C081FD3C
:1014400004C082FBCC27C0F901C0C1E090915F01CC
:10145000913071F028F0923079F09330D1F021C0C2
:101460002223F9F081E080935F011092A30119C05B
:10147000222349F092E003C0222329F093E09093C5
:101480005F011092A30181FF0CC080915F01815028
:1014900003C081FF06C082E080935F0181E08093FA
:1014A000A3018091A301823009F4BEC0811150C014
:1014B00090915E0180915F01981779F180E591E04C
:1014C0000E942209C0906001D0906101E090620109
:1014D000F0906301DC01CB018C199D09AE09BF09B5
:1014E000C297A105B10590F080915D018F5F809357
:1014F0005D0180E591E00E94220960936001709394
:1015000061018093620190936301C1E080915D016C
:1015100088300CF489C088EF51C080E591E00E94CA
:101520002209C0906001D0906101E0906201F090CA
:101530006301DC01CB018C199D09AE09BF09C2977B
:10154000A105B10508F469C080915D018F5F56C0A7
:10155000813009F069C090915E0180915F01981718
:10156000A1F180E591E00E942209C0906001D09035
:101570006101E0906201F0906301DC01CB018C1904
:101580009D09AE09BF09C297A105B10590F08091F0
:101590005D01815080935D0180E591E00E94220908
:1015A0006093600170936101809362019093630185
:1015B000C1E080915D01893FBCF588E080935D01C9
:1015C00080915F0180935E012FC080E591E00E94D1
:1015D0002209C0906001D0906101E0906201F0901A
:1015E0006301DC01CB018C199D09AE09BF09C297CB
:1015F000A105B10590F080915D01815080935D015E
:1016000080E591E00E94220960936001709361017E
:101610008093620190936301C1E080915D0181112B
:1016200003C082E08093A30180E591E00E9422093B
:10163000C0906801D0906901E0906A01F0906B0160
:10164000DC01CB018C199D09AE09BF0984369105D7
:10165000A105B10518F4CC2309F461C04091A4019F
:1016600088E0489FA001112460E070E08091AA0109
:101670009091AB010E94180D80915E018130B9F507
:1016800080915D0126E030E03093AD012093AC0104
:101690008093AE0164E371E00EC0823089F58091E1
:1016A0005D0126E030E03093AD012093AC018093E2
:1016B000AE0169E371E08FE691E00E941F0D6FE6D5
:1016C00071E084EA91E00E943E0960E084EA91E0E2
:1016D0000E947A0780E591E00E94220960936801E8
:1016E0007093690180936A0190936B0118C08130F7
:1016F000A0F640915D0160E0C8010E946209EACF56
:10170000833041F780915D0126E030E03093AD01F8
:101710002093AC018093AE016EE371E0CCCFCF910A
:101720001F910F91FF90EF90DF90CF900895E4EA22
:10173000F1E083E591E09583848384E0808385E212
:1017400090E09283818382E0838308950E941A0C43
:1017500088F09F5798F0B92F9927B751B0F0E1F072
:10176000660F771F881F991F1AF0BA95C9F714C022
:10177000B13091F00E94340CB1E008950C94340C17
:10178000672F782F8827B85F39F0B93FCCF386955B
:1017900077956795B395D9F73EF4909580957095B8
:1017A00061957F4F8F4F9F4F0895E89409C097FB35
:1017B0003EF490958095709561957F4F8F4F9F4F28
:1017C0009923A9F0F92F96E9BB279395F69587956C
:1017D00077956795B795F111F8CFFAF4BB0F11F42F
:1017E00060FF1BC06F5F7F4F8F4F9F4F16C08823D6
:1017F00011F096E911C0772321F09EE8872F762F0C
:1018000005C0662371F096E8862F70E060E02AF04C
:101810009A95660F771F881FDAF7880F9695879538
:1018200097F9089557FD9058440F551F59F05F3FA1
:1018300071F04795880F97FB991F61F09F3F79F0F2
:1018400087950895121613061406551FF2CF469574
:10185000F1DF08C0161617061806991FF1CF8695F6
:101860007105610508940895E894BB2766277727DA
:10187000CB0197F908950E944E0C0C94BF0C0E9466
:10188000B10C38F00E94B80C20F0952311F00C94A4
:10189000A80C0C94AE0C11240C94350C0E94120C64
:1018A00070F3959FC1F3950F50E0551F629FF001B3
:1018B000729FBB27F00DB11D639FAA27F00DB11DCC
:1018C000AA1F649F6627B00DA11D661F829F222755
:1018D000B00DA11D621F739FB00DA11D621F839FDC
:1018E000A00D611D221F749F3327A00D611D231FB2
:1018F000849F600D211D822F762F6A2F11249F5700
:1019000050409AF0F1F088234AF0EE0FFF1FBB1F02
:10191000661F771F881F91505040A9F79E3F5105C1
:1019200080F00C94A80C0C94350C5F3FE4F3983EC7
:10193000D4F3869577956795B795F795E7959F5F6B
:10194000C1F7FE2B880F911D9695879597F90895FD
:1019500097F99F6780E870E060E008959FEF80EC62
:10196000089500240A941616170618060906089505
:1019700000240A9412161306140605060895092E6B
:101980000394000C11F4882352F0BB0F40F4BF2BDA
:1019900011F460FF04C06F5F7F4F8F4F9F4F08951A
:1019A000991B79E004C0991F961708F0961B881FB1
:1019B0007A95C9F780950895AA1BBB1B51E107C012
:1019C000AA1FBB1FA617B70710F0A61BB70B881FCF
:1019D000991F5A95A9F780959095BC01CD0108955E
:1019E000A1E21A2EAA1BBB1BFD010DC0AA1FBB1F23
:1019F000EE1FFF1FA217B307E407F50720F0A21B95
:101A0000B30BE40BF50B661F771F881F991F1A9401
:101A100069F760957095809590959B01AC01BD012B
:101A2000CF010895EE0FFF1F0590F491E02D09946A
:101A3000DC0101C06D9341505040E0F70895FB0177
:101A4000DC0101900D920020E1F70895AEE0B0E0D6
:101A5000ECE2FDE00C94E70F0D891E8986E08C8393
:101A60001A8309838FEF9FE79E838D83AE01475EC4
:101A70005F4F6F89788DCE0101960E94480DEF81EE
:101A8000F885E00FF11F10822E96E4E00C9403100D
:101A9000ABE0B0E0EEE4FDE00C94D90F6C017B010B
:101AA0008A01FC0117821682838181FFCCC1CE019D
:101AB00001963C01F6019381F70193FD859193FF17
:101AC00081917F01882309F4BAC1853239F493FDED
:101AD000859193FF81917F01853229F4B60190E0D1
:101AE0000E943F0FE7CF912C212C312CFFE1F31501
:101AF000D8F08B3279F038F4803279F08332A1F467
:101B0000232D20611DC08D3261F0803369F4232DB7
:101B1000216016C0832D8260382EE32DE4603E2EB6
:101B20002AC0F32DF8601DC037FC2DC020ED280F12
:101B30002A3040F08E32B9F436FC81C1232D206466
:101B4000322E19C036FE06C08AE0989E200D112460
:101B5000922E11C0EAE02E9E200D1124222EF32D8C
:101B6000F0623F2E08C08C3621F4832D8068382E19
:101B700002C0883641F4F70193FD859193FF81916E
:101B80007F018111B3CF982F9F7D9554933028F416
:101B90000C5F1F4F9FE399830DC0833631F083376D
:101BA00071F0833509F059C021C0F8018081898323
:101BB0000E5F1F4F88248394912C530113C028017A
:101BC000F2E04F0E511CF801A080B18036FE03C038
:101BD000692D70E002C06FEF7FEFC5010E94340FE6
:101BE0004C018201F32DFF773F2E16C0280122E021
:101BF000420E511CF801A080B18036FE03C0692D51
:101C000070E002C06FEF7FEFC5010E94290F4C0109
:101C1000F32DF0683F2E820133FC1BC0822D90E033
:101C200088169906B0F4B60180E290E00E943F0F5A
:101C30002A94F4CFF50137FC859137FE81915F013D
:101C4000B60190E00E943F0F21102A9421E0821AF1
:101C500091088114910471F7E8C0843611F0893637
:101C600041F5F80137FE07C060817181828193815F
:101C70000C5F1F4F08C060817181072E000C880B1C
:101C8000990B0E5F1F4FF32DFF763F2E97FF09C074
:101C900090958095709561957F4F8F4F9F4FF0681D
:101CA0003F2E2AE030E0A3010E947B0F882E861889
:101CB00045C0853731F4232D2F7EB22E2AE030E047
:101CC00025C0932D997FB92E8F36C1F018F4883531
:101CD00079F0B5C0803719F0883721F0B0C0E92F0E
:101CE000E061BE2EB4FE0DC0FB2DF460BF2E09C016
:101CF00034FE0AC0292F2660B22E06C028E030E04C
:101D000005C020E130E002C020E132E0F801B7FE7A
:101D100007C060817181828193810C5F1F4F06C073
:101D20006081718180E090E00E5F1F4FA3010E94EF
:101D30007B0F882E8618FB2DFF773F2E36FE0DC0B9
:101D4000232D2E7FA22E891458F434FE0BC032FCB2
:101D500009C0832D8E7EA82E05C0B82CA32C03C0ED
:101D6000B82C01C0B92CA4FE0FC0FE01E80DF11D76
:101D70008081803321F49A2D997EA92E09C0A2FE7C
:101D800006C0B394B39404C08A2D867809F0B39446
:101D9000A3FC11C0A0FE06C0B21488F4280C922C3B
:101DA0009B180EC0B21460F4B60180E290E00E946D
:101DB0003F0FB394F7CFB21418F42B1802C0982C2D
:101DC000212CA4FE10C0B60180E390E00E943F0FDA
:101DD000A2FE17C0A1FC03C088E790E002C088E51E
:101DE00090E0B6010CC08A2D867859F0A1FE02C0A1
:101DF0008BE201C080E2A7FC8DE2B60190E00E9478
:101E00003F0F891438F4B60180E390E00E943F0F41
:101E10009A94F7CF8A94F301E80DF11D8081B60101
:101E200090E00E943F0F8110F5CF222009F442CEAE
:101E3000B60180E290E00E943F0F2A94F6CFF601AF
:101E40008681978102C08FEF9FEF2B96E2E10C9481
:101E5000F50FFC010590615070400110D8F7809596
:101E600090958E0F9F1F0895FC0161507040019066
:101E70000110D8F7809590958E0F9F1F08950F93AE
:101E80001F93CF93DF93FB01238121FD03C08FEFCD
:101E90009FEF2CC022FF16C04681578124813581D7
:101EA0004217530744F4A081B1819D012F5F3F4F3A
:101EB000318320838C93268137812F5F3F4F378377
:101EC000268314C08B01EC01FB010084F185E02D19
:101ED0000995892BE1F6D80116968D919C9117975B
:101EE000019617969C938E931697CE01DF91CF9112
:101EF0001F910F910895FA01AA27283051F120313E
:101F000081F1E8946F936E7F6E5F7F4F8F4F9F4F8D
:101F1000AF4FB1E03ED0B4E03CD0670F781F891FCF
:101F20009A1FA11D680F791F8A1F911DA11D6A0F9D
:101F3000711D811D911DA11D20D009F468943F9150
:101F40002AE0269F11243019305D3193DEF6CF014F
:101F50000895462F4770405D4193B3E00FD0C9F715
:101F6000F6CF462F4F70405D4A3318F0495D31FD82
:101F70004052419302D0A9F7EACFB4E0A6959795D5
:101F8000879577956795BA95C9F7009761057105AB
:101F900008959B01AC010A2E0694579547953795F5
:101FA0002795BA95C9F7620F731F841F951FA01D4F
:101FB00008952F923F924F925F926F927F928F92ED
:101FC0009F92AF92BF92CF92DF92EF92FF920F93C8
:101FD0001F93CF93DF93CDB7DEB7CA1BDB0B0FB6D2
:101FE000F894DEBF0FBECDBF09942A88398848888F
:101FF0005F846E847D848C849B84AA84B984C88425
:10200000DF80EE80FD800C811B81AA81B981CE0F1B
:10201000D11D0FB6F894DEBF0FBECDBFED01089500
:04202000F894FFCF62
:10202400FF03000000009D0247024D0253025B02C1
:102034005F026D027D0285028102D2023D0400002E
:10204400000084087D0881087F0825642563253005
:102054003264200054696D6500446174650044690C
:042064007370000095
:00000001FF
