S01B00004469676974616C4465736B436C6F636B5F76322E73726563D1
S11300000C9435000C945D000C945D000C945D0020
S11300100C945D000C945D000C945D000C945D00E8
S11300200C945D000C945D000C945D000C945D00D8
S11300300C945D000C945D000C9464030C945D00BE
S11300400C945D000C945D000C945D000C945D00B8
S11300500C945D000C945D000C945D000C945D00A8
S11300600C945D000C945D005D0411241FBECFEF61
S1130070D8E0DEBFCDBF11E0A0E0B1E0E6E2FCE0F5
S113008002C005900D92A832B107D9F721E0A8E289
S1130090B1E001C01D92A636B207E1F710E0C5E356
S11300A0D0E004C02197FE010E940B06C433D1079F
S11300B0C9F70E9408040C9411060C940000CF9216
S11300C0DF92EF92FF920F931F93CF93DF931F92D0
S11300D0CDB7DEB76983DC018D919C91E22EF12CC2
S11300E0DC01ED91FC910488F589E02D24E6C22E13
S11300F0D12C8A0121E0AE014F5F5F4F60ED09957D
S11301000F90DF91CF911F910F91FF90EF90DF90AF
S1130110CF900895CF92DF92EF92FF920F931F93A7
S1130120CF93DF9300D01F92CDB7DEB76B017A0176
S1130130890123E0AE014F5F5F4F60E00E945F00E2
S11301409981292F2695269526952E71322F330FC6
S1130150330F230F9F70920FF60190839A81292FFA
S11301602695269526952E71322F330F330F230FA4
S11301709F70920FF70190839B81292F26952695D6
S113018026952E71322F330F330F230F9F70920F4A
S1130190F80190830F900F900F90DF91CF911F91F2
S11301A00F91FF90EF90DF90CF900895FC01828132
S11301B0846A8093BC000895FC01828184698093E1
S11301C0BC0008956093BB00FC0182818468809325
S11301D0BC0008956170FC0163830895FC01809163
S11301E0BB00238190E4299F90011124928194689B
S11301F0292B2093BC0008952091B9009091B90057
S1130200287F31E0283009F030E0987F81E0903198
S113021009F080E0832B08958091BC0080780895D4
S11302208091B900807108953091B9002091B9008E
S11302309091B900387F41E0383109F040E0287FDF
S113024081E0283209F080E0842B987F21E090340B
S113025009F020E0822B08950F931F93CF93DF932F
S11302608C01EB01688179818A819B81F801648327
S11302707583868397832C813D814E815F810E94A3
S1130280E905DA01C9014097A109B109B695A79515
S1130290979587958093B8001092B9008885982F18
S11302A09E7F89858170892B8093BA008A85F801A5
S11302B0828384608093BC00DF91CF911F910F9162
S11302C008956F927F928F929F92AF92BF92CF9236
S11302D0DF92EF92FF920F931F93CF93DF93EC0182
S11302E0962E3A01822E2091B8002C9DC0012D9D9E
S11302F0900D11248E9D60018F9DD00C9E9DD00C7D
S11303001124E881F9810280F381E02DCE01099561
S1130310E881F9810484F585E02DCE0109958111E8
S113032007C0C114D10421F0B1E0CB1AD108F0CF39
S1130330E881F9810680F781E02D692DCE010995C8
S1130340E881F9810684F785E02DCE0109958111B4
S113035004C0C114D10409F05CC0E881F9810088AB
S1130360F189E02DCE0109958823B9F15301680C78
S1130370711C88248394E881F9816A147B04C1F098
S1130380D5016D915D010680F781E02DCE010995BF
S1130390E881F9810684F785E02DCE010995811164
S11303A03CC0C114D104C9F1F1E0CF1AD108F0CF97
S11303B00280F381E02DCE010995E881F98104845E
S11303C0F585E02DCE010995811130C0C114D10409
S11303D069F181E0C81AD108F0CFE881F98104807D
S11303E0F581E02DCE010995812C81E0CD2809F419
S11303F080E08821DF91CF911F910F91FF90EF90C2
S1130400DF90CF90BF90AF909F908F907F906F9030
S11304100895E1E0CE1AD10893CFE881F9810088EC
S1130420F189E02DCE0109958822A5CF692D61605F
S1130430E881F9810680F781E02DCE010995E881F4
S1130440F9810684F785E02DCE010995811107C055
S1130450C114D10421F0A1E0CA1AD108F0CFE88177
S1130460F9810088F189E02DCE0109958822E8817F
S1130470F981B1E0EB16F104E9F40084F185E02D93
S113048060E0CE010995E881F9810284F385E02DCD
S1130490CE010995E881F9810684F785E02DCE0126
S11304A00995811124C0C114D10409F1E1E0CE1AE7
S11304B0D108F0CF0084F185E02D61E0CE010995EB
S11304C0E881F9810284F385E02DCE010995E88164
S11304D0F9810684F785E02DCE010995811118C0B4
S11304E0C114D104A9F0B1E0CB1AD108F0CFE8814E
S11304F0F9810480F581E02DCE010995E881F98127
S11305000284F385E02DCE010995D8018C936DCF3B
S1130510E1E0EE1AF1083801A12CB12CBFEFAB1ABF
S1130520BB0A61E0AE14BF0408F060E0E881F98121
S11305300084F185E02DCE010995E881F9810284DA
S1130540F385E02DCE010995F30181933F01E88104
S1130550F9810684F785E02DCE0109958823A9F059
S1130560AE14BF04D8F2E881F9810480F581E02D4E
S1130570CE010995E00EF11EE881F9810284F3852C
S1130580E02DCE010995D701C1CFC114D10441F3A7
S1130590F1E0CF1AD108DBCFAF92BF92CF92DF92B6
S11305A0EF92FF920F931F93CF93DF93EC01D62E1C
S11305B0B42EA52E79012091B800209FC001219F5F
S11305C0900D1124E89E8001E99E100DF89E100DF7
S11305D01124E881F9810280F381E02DCE0109958F
S11305E0E881F9810484F585E02DCE010995811116
S11305F006C00115110519F001501109F1CFE88168
S1130600F9810680F781E02D6D2DCE010995E881F1
S1130610F9810684F785E02DCE010995811104C086
S11306200115110509F044C0E881F9810088F189B8
S1130630E02DCE010995882319F1CB2CDA2C560133
S1130640AE0CBF1CFF24F394AC14BD04D1F0F6012E
S113065061916F01E881F9810680F781E02DCE0177
S11306600995E881F9810684F785E02DCE01099585
S1130670811121C001151105F1F001501109F1CFCB
S1130680F12CE881F9810480F581E02DCE010995F2
S113069081E0012B09F480E08F21DF91CF911F913C
S11306A00F91FF90EF90DF90CF90BF90AF9008959F
S11306B001501109ACCFE881F9810088F189E02D5E
S11306C0CE010995F822C0CF1F920F920FB60F9258
S11306D011248F939F93AF93BF9380916201909164
S11306E06301A0916401B09165010196A11DB11D42
S11306F08093620190936301A0936401B0936501B8
S1130700BF91AF919F918F910F900FBE0F901F904B
S1130710189581E185B98EE284B98FE088B917B85C
S11307208DEF8BB982E08AB90895CF93DF93CDB76B
S1130730DEB72B970FB6F894DEBF0FBECDBF80E0B7
S113074094E2A4EFB0E089839A83AB83BC831A86D6
S11307501B868EEF898780E89AE1A6E0B0E08D835E
S11307609E83AF83B887BE016F5F7F4F8AE591E0B8
S11307700E942C012B960FB6F894DEBF0FBECDBF9E
S1130780DF91CF910895CF93DF9300D000D000D0B4
S1130790CDB7DEB71D821C821B821A8281E0898359
S11307A086E08E83BE016F5F7F4F88E591E00E94F3
S11307B0BF0526960FB6F894DEBF0FBECDBFDF91FE
S11307C0CF91089514BC83E085BD82E080936E00D0
S11307D08AEF87BD0895CF93DF93EC010E948903CC
S11307E0CE010E949503CE010E94C303CE010E9454
S11307F0E2037894DF91CF910895F89460916201B7
S113080070916301809164019091650178940895D9
S1130810CF93DF9300D01F92CDB7DEB787E591E089
S11308200E94EB038DE491E00E94E20488E291E0EF
S113083090935401809353019E012D5F3F4FAE016D
S11308404E5F5F4FBE016F5F7F4F85E591E00E9471
S11308508A0087E591E00E94FD030091490110910F
S11308604A0120914B0130914C01DC01CB01801BEA
S1130870910BA20BB30B84369105A105B105C0F011
S11308806091480181E0860F8093480121E040E0B7
S11308908DE491E00E94160587E591E00E94FD0336
S11308A06093490170934A0180934B0190934C01EA
S11308B08DE491E00E944005BFCFEAE5F1E084E0D9
S11308C091E091838083A8E5B1E080E291E0119604
S11308D09C938E93F0935601E0935501EDE4F1E07F
S11308E0B583A48384E0808385E290E0928381834E
S11308F082E083830895EF92FF920F931F93CF9327
S1130900DF93EC01162FF42EE22E8881861710F067
S1130910861B182FE981FA81208181E090E00B8009
S113092002C0880F991F0A94E2F78095822380837E
S113093000E02881021790F58C819D81DC01ED9106
S1130940FC910280F381E02D101711F0211710F4AF
S11309506F2D01C060E009958C819D81DC01ED91D2
S1130960FC910480F581E02D09958823A9F38C81FD
S11309709D81DC01ED91FC910280F381E02D6E2DCF
S113098009958C819D81DC01ED91FC910480F581B8
S1130990E02D09958823A9F30F5FCBCFE981FA8174
S11309A0208181E090E00B8002C0880F991F0A9497
S11309B0E2F7822B8083DF91CF911F910F91FF90FB
S11309C0EF9008951F93CF93DF93EC0168816F5FDD
S11309D020E04CE00E947B0410E01F5F68816F5FA1
S11309E020E0412FCE010E947B041830B1F76881CA
S11309F06F5F27E04BE0CE010E947B0468816F5F4C
S1130A0020E04FE0CE010E947B0468816F5F27E005
S1130A104AE0CE010E947B0468816F5F21E04CE0D4
S1130A20CE01DF91CF911F910C947B04DC01EC91FA
S1130A30362F3695369536954E9FF0011124AF0129
S1130A40430F511D1696ED91FC911797E40FF51F76
S1130A5090816770222349F021E030E001C0220F29
S1130A606A95EAF7892F822B09C021E030E001C0A2
S1130A70220F6A95EAF7822F80958923808308954F
S1130A80CF92DF92EF92FF920F931F93CF93DF9356
S1130A90EC0100E010E0EE24E394F12CE981FA810A
S1130AA0908197010B8002C0220F331F0A94E2F752
S1130AB0822F809589238083D880D394CC24C394B7
S1130AC0C00EDD20D1F18C819D81DC01ED91FC9182
S1130AD00280F381E02D6C2D09958C819D81DC01D0
S1130AE0ED91FC910480F581E02D09958823A9F30B
S1130AF08C819D814881409F9001419F300D11243C
S1130B00AE81BF81A20FB31FAD0DB11D1197FC01C2
S1130B1020813181F901228133816C91F901099598
S1130B208C819D81DC01ED91FC910480F581E02DA7
S1130B3009958823A9F3DA94C4CFE981FA81208145
S1130B40C7010B8002C0880F991F0A94E2F7822B19
S1130B5080830F5F1F4F0830110509F09FCFDF918D
S1130B60CF911F910F91FF90EF90DF90CF90089558
S1130B706EBD08958EB508958DB580780895FB01F6
S1130B80258123702064918130E8939FD001112442
S1130B902A2B928140E2949FB0011124262B90814C
S1130BA080E1989FA0011124822F842B938148E037
S1130BB0949F90011124282B948134E0939FC001C9
S1130BC01124822B8CBD858182FB882780F98DBD01
S1130BD00895A1E21A2EAA1BBB1BFD010DC0AA1F7A
S1130BE0BB1FEE1FFF1FA217B307E407F50720F092
S1130BF0A21BB30BE40BF50B661F771F881F991F0D
S1130C001A9469F760957095809590959B01AC0155
S1130C10BD01CF010895EE0FFF1F0590F491E02D63
S1090C200994F894FFCFD3
S1130C26000000002C01D600DC00E200EA00EE0021
S1130C36FC000C01140110016101CC02000000004B
S10B0C46BF05B805BC05BA05A1
S9030000FC
