:100000000C9435000C945D000C945D000C945D0024
:100010000C945D000C945D000C945D000C945D00EC
:100020000C945D000C945D000C945D000C945D00DC
:100030000C945D000C945D000C9498030C945D008E
:100040000C945D000C945D000C945D000C945D00BC
:100050000C945D000C945D000C945D000C945D00AC
:100060000C945D000C945D00650411241FBECFEF5D
:10007000D8E0DEBFCDBF11E0A0E0B1E0E0E1FBE001
:1000800002C005900D92A832B107D9F721E0A8E28D
:10009000B1E001C01D92A334B207E1F710E0C5E35F
:1000A000D0E004C02197FE010E948005C433D1072F
:1000B000C9F70E9431040C9486050C940000CF927D
:1000C000DF92EF92FF920F931F93CF93DF931F92D4
:1000D000CDB7DEB76983DC018D919C91E22EF12CC6
:1000E000DC01ED91FC910488F589E02D0F2EF4E6FA
:1000F000CF2ED12CF02D8A0121E0AE014F5F5F4F52
:1001000060ED09950F90DF91CF911F910F91FF90B6
:10011000EF90DF90CF900895CF92DF92EF92FF9211
:100120000F931F93CF93DF9300D01F92CDB7DEB70D
:100130006B017A01890123E0AE014F5F5F4F60E000
:100140000E945F009981292F2695269526952E716C
:10015000322F330F330F230F9F70920FF6019083CE
:100160009A81292F2695269526952E71322F330FA9
:10017000330F230F9F70920FF70190839B81292FDC
:100180002695269526952E71322F330F330F230F88
:100190009F70920FF80190830F900F900F90DF9156
:1001A000CF911F910F91FF90EF90DF90CF90089526
:1001B000FC018281846A8093BC000895FC018281E5
:1001C00084698093BC0008956093BB00FC01828128
:1001D00084688093BC0008956170FC016383089576
:1001E000FC018091BB00238190E4299F90011124A0
:1001F00092819468292B2093BC000895E9EBF0E0EC
:1002000020819081287F31E0283009F030E0987F0C
:1002100081E0903109F080E0832B08958091BC004B
:10022000807808958091B90080710895E9EBF0E03D
:10023000308120819081387F41E0383109F040E001
:10024000287F81E0283209F080E0842B987F21E02C
:10025000903409F020E0822B08950F931F93CF93E1
:10026000DF938C01EB0188819981AA81BB81F80120
:1002700084839583A683B783688179818A819B81F2
:100280002C813D814E815F810E945E05DA01C901AA
:100290004097A109B109B695A79597958795809341
:1002A000B8001092B9008885982F9E7F898581704B
:1002B000892B8093BA008A85F801828384608093B9
:1002C000BC00DF91CF911F910F9108955F926F92C3
:1002D0007F928F929F92AF92BF92CF92DF92EF92D6
:1002E000FF920F931F93CF93DF93EC01962E5A0149
:1002F000822E38012091B8002C9DC0012D9D900DBB
:100300001124E89E8001E99E100DF89E100D112425
:10031000E881F9810280F381E02DCE010995E88121
:10032000F9810484F585E02DCE0109958111E6C09F
:100330000115110509F0DFC0E1C0E881F9810684EB
:10034000F785E02DCE0109958111E1C00115110558
:1003500009F0E7C0DCC0882009F165018A94882D86
:1003600090E00196A80EB91E88248394F60161914D
:100370006F01E881F9810680F781E02DCE010995B2
:10038000E881F9810684F785E02DCE010995811178
:10039000CEC00115110509F0C7C0C9C088248394D7
:1003A000E881F9810280F381E02DCE010995E88191
:1003B000F9810484F585E02DCE0109958111C7C02E
:1003C0000115110509F0C0C0C2C0E881F981068499
:1003D000F785E02DCE0109958111C3C001151105E6
:1003E00009F0CDC0BEC0E881F9810084F185E02D1F
:1003F00060E0CE010995E881F9810284F385E02D62
:10040000CE010995E881F9810684F785E02DCE01BA
:1004100009958111B7C00115110509F0C4C0B2C01A
:10042000E881F9810084F185E02D61E0CE01099534
:10043000E881F9810284F385E02DCE010995E881F8
:10044000F9810684F785E02DCE0109958111AEC0B2
:100450000115110509F0B0C0A9C05301C12CD12C60
:1004600099249394512CFFEFCF1ADF0A692DCE14F3
:10047000DF0408F0652DE881F9810084F185E02D25
:10048000CE010995E881F9810284F385E02DCE0142
:100490000995F50181935F01E881F9810684F7856B
:1004A000E02DCE01099581118DC00115110509F0CE
:1004B00086C088C0E881F9810480F581E02DCE01F5
:1004C0000995E60CF71CE881F9810284F385E02D9B
:1004D000CE010995F701808308C0E881F981048085
:1004E000F581E02DCE010995812C81E0012B09F4E5
:1004F00080E088216CC00150110911CFE881F98199
:100500000680F781E02D692DCE01099516CFE8818F
:10051000F9810088F189E02DCE01099581111BCF69
:10052000DCCF0150110909CF0150110929CFE88111
:10053000F9810088F189E02DCE0109958822CA143D
:10054000DB0409F013CF2CCF0150110930CF692DF6
:100550006160E881F9810680F781E02DCE0109957F
:1005600034CFE881F9810088F189E02DCE01099529
:100570008822F1E0EF16F10409F052CF34CF015098
:10058000110923CFE881F9810480F581E02DCE01A6
:100590000995E881F9810284F385E02DCE01099562
:1005A000F3018083A2CF015011092CCFF1E0EF1AA3
:1005B000F10809F052CF7ECF0150110940CF015010
:1005C00011096ACFCE14DF0408F44DCF73CFDF9149
:1005D000CF911F910F91FF90EF90DF90CF90BF9040
:1005E000AF909F908F907F906F905F900895AF92A3
:1005F000BF92CF92DF92EF92FF920F931F93CF9310
:10060000DF93EC01F62E5A0169012091B800209F7A
:10061000C001219F900D1124C89E8001C99E100D1C
:10062000D89E100D1124E881F9810280F381E02D1C
:10063000CE010995E881F9810484F585E02DCE018C
:100640000995811143C001151105E9F53FC0E88105
:10065000F9810684F785E02DCE01099581113FC00F
:100660000115110509F046C03AC0C114D104E1F0EA
:100670007501CA0CDB1CBB24B394F70161917F01A7
:10068000E881F9810680F781E02DCE010995E881A6
:10069000F9810684F785E02DCE010995811130C0DE
:1006A0000115110551F52CC0BB24B394E881F981E3
:1006B0000480F581E02DCE01099581E0012B09F43C
:1006C00080E08B212AC001501109B4CFE881F98163
:1006D0000680F781E02D6F2DCE010995B8CFE88116
:1006E000F9810088F189E02DCE0109958111BDCFF6
:1006F000B12CDCCF01501109AACF01501109C7CF8D
:10070000E881F9810088F189E02DCE010995B822B0
:10071000CE14DF0409F0B1CFC9CFDF91CF911F9183
:100720000F91FF90EF90DF90CF90BF90AF90089522
:100730001F920F920FB60F9211248F939F93AF9336
:10074000BF9380913F0190914001A0914101B091F0
:1007500042010196A11DB11D80933F01909340017C
:10076000A0934101B0934201BF91AF919F918F91AE
:100770000F900FBE0F901F90189581E185B98EE202
:1007800084B98FE088B917B88DEF8BB982E08AB948
:100790000895CF93DF93CDB7DEB72B970FB6F894BC
:1007A000DEBF0FBECDBF80E094E2A4EFB0E089834E
:1007B0009A83AB83BC831A861B868EEF898780E879
:1007C0009AE1A6E0B0E08D839E83AF83B887BE0137
:1007D0006F5F7F4F87E391E00E942D012B960FB64C
:1007E000F894DEBF0FBECDBFDF91CF910895CF93B8
:1007F000DF9300D000D000D0CDB7DEB71D821C82C1
:100800001B821A8281E0898386E08E83BE016F5F3E
:100810007F4F85E391E00E94370526960FB6F89446
:10082000DEBF0FBECDBFDF91CF91089514BC83E032
:1008300085BD82E080936E008AEF87BD0895CF93D7
:10084000DF93EC010E94BD03CE010E94C903CE01DB
:100850000E94F703CE010E9416047894DF91CF9195
:100860000895CF93DF9300D01F92CDB7DEB784E316
:1008700091E00E941F048CE291E00E94F50408E2DE
:1008800011E0F12C9E012D5F3F4FAE014E5F5F4F97
:10089000BE016F5F7F4F82E391E00E948C0029814F
:1008A000F8018081281771F341E065E08CE291E066
:1008B0000E94830481E090912B0191118F2D8093F0
:1008C0002B018981F8018083DDCFE7E3F1E084E04B
:1008D00091E091838083A5E3B1E080E291E01196FD
:1008E0009C938E93F0933301E0933201ECE2F1E0BC
:1008F000B583A48384E0808385E290E09283818342
:1009000082E083830895EF92FF920F931F93CF931A
:10091000DF93EC01062FE42EF22E8881861710F06B
:10092000861B082FE981FA81208181E090E00B800D
:1009300002C0880F991F0A94E2F780958223808372
:1009400088818823F1F110E0011711F0801758F425
:100950008C819D81DC01ED91FC910280F381E02D81
:100960006E2D09950AC08C819D81DC01ED91FC9171
:100970000280F381E02D60E009958C819D81DC018E
:10098000ED91FC910480F581E02D09958823A9F370
:100990008C819D81DC01ED91FC910280F381E02D41
:1009A0006F2D09958C819D81DC01ED91FC91048076
:1009B000F581E02D09958823A9F31F5F8881181719
:1009C00018F2E981FA81208181E090E00B8002C079
:1009D000880F991F0A94E2F7822B8083DF91CF91D1
:1009E0001F910F91FF90EF9008950F931F93CF9356
:1009F0008C01FC0160816F5F20E04CE00E94830469
:100A0000C0E0CF5FF80160816F5F20E04C2FC8012C
:100A10000E948304C830A9F7F80160816F5F27E066
:100A20004BE0C8010E948304F80160816F5F20E001
:100A30004FE0C8010E948304F80160816F5F27E0E6
:100A40004AE0C8010E948304F80160816F5F21E0E1
:100A50004CE0C8010E948304CF911F910F9108952B
:100A60006EBD08958EB508958DB580780895FB010B
:100A7000258123702064918130E8939FA001112487
:100A8000822F842B928140E2949F90011124282B85
:100A9000908130E1939FC0011124822B9381990FA3
:100AA000990F990F892B9481990F990F892B8CBDE0
:100AB000858182FB882780F98DBD0895A1E21A2ED9
:100AC000AA1BBB1BFD010DC0AA1FBB1FEE1FFF1FF2
:100AD000A217B307E407F50720F0A21BB30BE40B42
:100AE000F50B661F771F881F991F1A9469F7609589
:100AF0007095809590959B01AC01BD01CF01089543
:100B0000EE0FFF1F0590F491E02D0994F894FFCFAC
:100B1000000000002D01D800DE00E400EC00F00031
:100B2000FE000E01160112016601F702000000002E
:080B30003705300534053205DC
:00000001FF
